:040000000200833245
:01000B0032C2
:0100130032BA
:01001B0032B2
:0100230032AA
:01002B0032A2
:01003300329A
:01003B003292
:01004300328A
:01004B003282
:01005300327A
:01005B003272
:01006300326A
:01006B003262
:01007300325A
:03007B000202DAA4
:0300DC0002007EA1
:05007E001201B980FE33
:1000DF0090DF317406F090DF00740BF090DF017445
:1000EF000BF090DF0274FFF090DF037404F090DFE9
:1000FF00047405F090DF05E4F090DF06F090DF0761
:10010F007406F090DF08E4F090DF097426F090DFBA
:10011F000A7455F090DF0B7455F090DF0C74EEF00D
:10012F0090DF0D7455F090DF0E7473F090DF0F7445
:10013F0023F090DF107455F090DF117416F090DFFC
:10014F00127407F090DF137430F090DF147418F00E
:10015F0090DF157417F090DF16746CF090DF177442
:10016F0003F090DF187440F090DF197491F090DF76
:10017F001A7456F090DF1B7410F090DF1C74EAF0C5
:10018F0090DF1D742AF090DF1EE4F090DF1F741FC4
:10019F00F090DF237488F090DF247431F090DF2526
:1001AF007409F090DF2E74C0F0227A007B00C00239
:1001BF00C00312024012025475E10175E1021200F0
:1001CF00DF90000F120219D003D00275E10475E120
:1001DF000390DF3BE0FC53041FBC13F5BAE813BBDD
:1001EF0003107508FFE4F5099000011202957A00DB
:1001FF007B000ABA00010B75E10490000FC002C02A
:10020F0003120219D003D00280C4AA82AB831ABA98
:10021F00FF011BC3E49A74808BF063F08095F0505C
:10022F000F7CB07D041CBCFF011DEC4D70F780DE10
:10023F002253BE7BE5BE30E6FB53C6B8E5C620E6CB
:10024F00FB43BE042243FE0243FE04C291D292221C
:10025F00B2912275860075C2AA75C5302253F1FE80
:10026F0075868075C40075C23B75C50075C50B7565
:10027F00F30C22AA822085FD8AC17508FFE4F509D7
:10028F00900001020295AA82AB83EA4B6027C0025D
:10029F00C00312025F8508828509831202191202B8
:1002AF005F850882850983120219D003D0021ABA1A
:1002BF00FFD81B80D52243BE8022538ABFC2EB7565
:1002CF008D40439A10438C02D2AF22538ABFC2EBA8
:1002DF0053BEFC3285D50A85D40B90F0007407F01D
:1002EF0090F0017407F090F0027407F090F003742F
:1002FF0007F090F0047407F090F0057407F090F099
:10030F00067404F090F007E4F090F008F090F00914
:10031F0074DFF090F00A74BEF090F00BE4F090F000
:10032F000C7407F090F00D7420F090F00E7442F002
:10033F0053BEFBE5BE30E5FBAAC674F85AF5F07460
:10034F004145F0F5C6E5C630E6FB43BE041202C9CF
:10035F0085D50A85D40B43D6817A007BF08B02902A
:10036F00F007EAF07A007BF090F008EAF07A077B6A
:10037F00F08BD57A077BF08AD475D60143C7024339
:10038F00BE07000000E5BE540370030203A575D736
:10039F0001004387010053C7FD850AD5850BD4752E
:0803AF00D601E5BE30E5FB229A
:0600B200E478FFF6D8FD22
:100090007900E94400601B7A009003BB780F7593E8
:1000A000F0E493F2A308B800020593D9F4DAF275EC
:0200B00093FFBC
:1000B8007800E84400600A79007593F0E4F309D801
:1000C800FC780FE84400600C790190F000E4F0A39C
:0400D800D8FCD9FA7D
:0D00830075810B1203B7E582600302007E59
:0403B7007582002229
:00000001FF
