:0600000002008B0215272F
:01000B0032C2
:0100130032BA
:01001B0032B2
:0100230032AA
:01002B0032A2
:0300330002276839
:01003B003292
:01004300328A
:01004B003282
:01005300327A
:01005B003272
:01006300326A
:03006B0002281058
:01007300325A
:01007B003252
:030083000215F271
:0300E40002008691
:050086001213FB80FED7
:1000E70090DF0374E5F090DF047404F090DF077489
:1000F70012F090DF08E4F090DF0C743EF090DF140C
:10010700E4F090DF17E044C0F090DF1C74EAF09051
:10011700DF1D742AF090DF1EE4F090DF1F741FF0DC
:1001270090DF237488F090DF247431F090DF25741A
:1001370009F022ACF0122B99FDA3AA82AB8390DFC2
:100147000CEDF08A828B838CF0122B99FDA3AA8287
:10015700AB8390DF0DEDF08A828B838CF0122B99A5
:10016700FDA3AA82AB8390DF0EEDF08A828B838C8E
:10017700F0122B99FDA3AA82AB8390DF0FEDF08AD3
:10018700828B838CF0122B99FDA3AA82AB8390DF1D
:1001970010EDF08A828B838CF0122B99FDA3AA8233
:1001A700AB8390DF11EDF08A828B838CF0122B9951
:1001B700FDA3AA82AB8390DF1AEDF08A828B838C32
:1001C700F0122B9990DF1BF022ACF0122B99FDA3B4
:1001D700AA82AB8390DF12EDF08A828B838CF012B8
:1001E7002B99FDA3AA82AB8390DF13EDF08A828B54
:1001F700838CF0122B99FDA3AA82AB8390DF14EDB9
:10020700F08A828B838CF0122B99FDA3AA82AB8391
:1002170090DF15EDF08A828B838CF0122B99FDA36A
:10022700AA82AB8390DF16EDF08A828B838CF01263
:100237002B99FDA3AA82AB8390DF17EDF08A828BFF
:10024700838CF0122B99FDA3AA82AB8390DF18ED64
:10025700F08A828B838CF0122B99FDA3AA82AB8341
:1002670090DF19EDF08A828B838CF0122B99FDA316
:10027700AA82AB8390DF03EDF08A828B838CF01226
:100287002B99FDA3AA82AB8390DF04EDF090DF02E8
:1002970074FFF08A828B838CF0122B99FDA3AA82BC
:1002A700AB8390DF02EDF08A828B838CF0122B995F
:1002B700FDA3AA82AB8390DF01EDF08A828B838C4A
:1002C700F0122B9990DF00F022ACF0122B99FDA3CE
:1002D700AA82AB8390DF2EEDF08A828B838CF0129B
:1002E7002B99FDA3AA82AB8390DF2DEDF08A828B39
:1002F700838CF0122B99FDA3AA82AB8390DF09EDC3
:10030700F08A828B838CF0122B99FDA3AA82AB8390
:1003170090DF0AEDF08A828B838CF0122B99FDA374
:10032700AA82AB8390DF0BEDF08A828B838CF0126D
:100337002B9990DF06F022ACF0122B99FDA3AA822D
:10034700AB8390DF1CEDF08A828B838CF0122B99A4
:10035700FDA3AA82AB8390DF1DEDF08A828B838C8D
:10036700F0122B99FDA3AA82AB8390DF1EEDF08AD2
:10037700828B838CF0122B99FDA3AA82AB8390DF2B
:100387001FEDF08A828B838CF0122B99FDA3AA8232
:10039700AB8390DF23EDF08A828B838CF0122B994D
:1003A700FDA3AA82AB8390DF24EDF08A828B838C36
:1003B700F0122B9990DF25F02285822B85832C85DF
:1003C700F02DF52E852B82852C83852DF0E52E12B9
:1003D7002A31AA82AB83ACF0FDC002C003C004C0BF
:1003E7000590F4FC75F032743B1228C0AA82AB83E7
:1003F700ACF0FDE58124FCF5818A828B838CF0EDDE
:10040700122A44AA82AB83ACF090DF09ECF090DFAC
:100417000AEBF090DF0BEAF075E10175E10290005D
:100427000212171CE52A75F006A4FAABF0EA2409B4
:10043700FCEB34F0FD90DF09E08C828D83F0EA2439
:1004470009FAEB34F0FB74012AFCE43BFD90DF0A68
:10045700E08C828D83F074022AFCE43BFD90DF0B75
:10046700E08C828D83F074032AFCE43BFD90DF1C53
:10047700E08C828D83F074042AFCE43BFD90DF1D41
:10048700E08C828D83F074052AFAE43BFB90DF1E33
:10049700E08A828B83F075E10422E4F52FF530C3FF
:1004A700745A952FE49530405C90F91DE0FCA3E069
:1004B700FDA3E0FEA3E0FF852F72853073757400FE
:1004C7007575008C828D838EF0EF122AB3AC82ADE6
:1004D70083AEF0FF90F005E0F8A3E0F9A3E0FAA3FC
:1004E700E0FBEC28FCED39FDEE3AFEEF3BFF852FF4
:1004F7002A8C828D838EF0EF1203C0052FE4B52F6F
:100507009E0530809A22E58275F006A4FAABF0EAE0
:100517002409F582EB34F0F583E090DF09F0EA2453
:1005270009FAEB34F0FB8A828B83A3E090DF0AF0B1
:100537008A828B83A3A3E090DF0BF08A828B83A34D
:10054700A3A3E090DF1CF08A828B83A3A3A3A3E07D
:1005570090DF1DF08A828B83A3A3A3A3A3E090DF80
:100567001EF022E4F53EF535F536FDF538F526F5AE
:1005770027F524F525F528F52990F0057480F0A3D3
:10058700746DF0A374C3F0A37435F0D29190000298
:10059700C00512171CC29190000A12171C1200E71F
:1005A700D00590F91BE4F0E53E24F7500A90F921B5
:1005B700E0FF90F92104F0753E0020920590F91BA9
:1005C700E4F0C0051225A4D00590F91BE0FF705692
:1005D700D291900BB812171CC291900BB812171C2E
:1005E7007522007523FFE4F535FDF538F526F52767
:1005F70090FB35E4F0E4F524F525F528F52990F985
:10060700F3E4F090F9F4F090F91D7450F0A374C37B
:10061700F0A3E4F0A3F090F91C745AF0902C34E4A2
:1006270093FF90F91BF00526E4B526020527E5356B
:100637002538FF75340085383790F91CE0FBC395E2
:100647003750030205AEC005C0071225A4853782BF
:1006570012050D75E1029000C8121743D007D005A7
:1006670090F91BE0FB24F05003020C89EB2B2B9035
:10067700067A73020C890206B50207050208FD0215
:100687000937020A72020B07020C31020C42020CF4
:1006970089020C89020C89020C89020C89020C89D7
:1006A70090F9F3743FF0E4F528F529020C8990F9E5
:1006B700F37440F0C005C0071204A1D007D005AB02
:1006C7003890F91CE0F8C3EB98501CEB2425F58211
:1006D700E434F2F58374FFF0EB247FF582E434F21F
:1006E700F583E4F00B80DAE528452970067528B014
:1006F700752904E4F526F52790F91B7402F090DFBD
:100707003AE0FB74806BF533C3E52295335007E578
:100717003304F522800AC3E5339523500385332339
:10072700E5372425F539E434F2F53A853982853AF7
:1007370083E0F536C395335025A8337E00AC367970
:1007470000E8C39CF8EE99FEC3E89403EE64809436
:10075700805032853982853A83E533F08027AC367D
:100767007E00A8337900ECC398FCEE99FEC3740AA7
:100777009C74808EF063F08095F0500985398285EE
:100787003A83E533F0E5372425FCE434F2FE8C8226
:100797008E83E0F8C3E5339850078C828E83E53368
:1007A700F0E5372425FCE434F2FE8C828E83E0F8F2
:1007B700C395335024A933E4FBFAE9C398F9EB9ABC
:1007C700FBC374039974808BF063F08095F0502E0F
:1007D7008C828E83E533F080258C828E83E0FB78D4
:1007E70000A9337A00EBC399FBE89AF8C3EB940AA4
:1007F700E86480948050078C828E83E533F0AB33B6
:100807007C00E537247FFEE434F2F88E828883E0AB
:10081700F97A00C3E99BEA9C50068E828883EBF045
:10082700C3E5269528E52795295003020C89902CC6
:100837003FC005C00712283AD00790F91CE0FB7C9F
:1008470000AE387800EBC39EF549EC98F54A754B36
:1008570025754CF2754802758202C006C007C000B4
:1008670012184A902C4C12283AD000D007D0069084
:10087700F91CE07C00C39EF549EC98F54A754B7F5F
:10088700754CF2754803758202C00712184A902CFE
:100897005912283AAB227C00AE237800EBC39EF5B1
:1008A70072EC98F573900007122A96AB82AC8375A9
:1008B7007208E4F5738B828C83122BB5AB8290F9A7
:1008C70021EB2523F0902C7612283A754B21754C95
:1008D700F9754808754901E4F54A75820212184A04
:1008E700D007D005E4F528F529902C36E493FB9042
:1008F700F91BF0020C8990F9F37441F08F0390F91A
:100907001CE0FCC3EB9C500FEB247FF582E434F230
:10091700F583E4F00B80E7C0071204A1D007752820
:10092700B0752904E4F526F527FD90F91B7404F04A
:1009370090DF3AE0FB74806BF533E5372425F582C9
:10094700E434F2F583E533F0E537247FFBE434F252
:10095700FC8B828C83E0FEC3953350078B828C839C
:10096700E533F090F921E0FBC39533501FED6003A9
:10097700020A19AD37902C88C005C00712283A859E
:10098700338212286DD007D005020A19ED700302D1
:100997000A19A9377B008D047E00E9C39CF582EB19
:1009A7009EF583757202E4F573C005C007122BB577
:1009B700AB82D007D005E537C39BFB247FFCE4342B
:1009C700F2FE8C828E83E0F8B8FF005007088C8215
:1009D7008E83E8F0902C9CC003C005C00712283A0C
:1009E700D007D0058D82C00712286D902CAC122835
:1009F7003AD007D0038B82C00712286D902CBD1206
:100A0700283A85378212286D902CCB12283AD007C6
:100A17007D00C3E5269528E52795295003020C8913
:100A2700902CDDC005C00712283A90F91CE0FC7E27
:100A370000A8387900ECC398FCEE998C49C5492584
:100A4700E0C54933F54A754B7F754CF27548047517
:100A5700820212184AD007D005E4F526F527F528B3
:100A6700F52990F91B740FF0020C8990F9F3744281
:100A7700F0E4F524F5257CD97EF278008C3B8E3C9A
:100A8700883D753190753201C007853B82853C836F
:100A9700853DF074FF122A7DA374FF122A7D74022C
:100AA700253BFAE4353CF9AF3D8A8289838FF074A0
:100AB700FF122A7D7403253BFAE4353CFFA93D8AE2
:100AC700828F8389F074FF122A7D7404253BF53BDE
:100AD700E4353CF53C153174FFB531021532D007CA
:100AE700E531453270A2C005C0071204A1D007D076
:100AF70005E4F526F527902C39E493FA90F91BF0D5
:100B070090DF3AE0FA74806AF53390F921E0FAC38E
:100B170095335026ED7005AD37020BDDC3E53695ED
:100B2700335006853336020BDD853682C005C00794
:100B370012286DD007D005020BDDED7003020BDD27
:100B4700C00785373B753C008D077A00E53BC39F9F
:100B5700FFE53C9AFA8F828A83A3757202E4F573E4
:100B6700C005122BB5AA82D005EA2DFBAA24AF2512
:100B77000524E4B524020525EFCA25E0CA33CA25B2
:100B8700E0CA33FFEA24D9FAEF34F2FF8A048F066A
:100B9700780074032CFAE43EFF88018A828F8389E8
:100BA700F0E536122A7D74022CFAE43EFF88018AAA
:100BB700828F8389F0EB122A7D8C828E8388F0E501
:100BC70026122A7DA3E527122A7D7D0075360005AA
:100BD7003485343ED007C3E5249490E5259401403D
:100BE70038D2919001F4C005C00712171CC291902A
:100BF70001F412171C902CEE12283A754BD9754C3C
:100C0700F275480685244985254A75820212184AD5
:100C1700D007D005E4F524F52574FFB5266474FDE7
:100C2700B5275FE4F526F5278058C005C0071204ED
:100C3700A1D007D00590F91B7408F0E537702B9009
:100C4700F91CE0FA7B00AE387C00EAC39EF549EB5D
:100C57009CF54A754B25754CF2754809758202C09B
:100C670005C00712184AD007D00590DF3AE0FA749A
:100C7700806AF533E5372425F582E434F2F583E518
:100C870033F075E104053702064074042419F54171
:100C9700E434FAF542854182854283E0F53FA38536
:100CA7008241858342E0F540A3858241858342E006
:100CB700FE7F0074022541F541E43542F542E4B573
:100CC7004003020D6E7401B54003020D8B7402B52B
:100CD7004003020DA37403B54003020DBB7404B5B2
:100CE7004003020DEB7410B54003020E2A7411B5D0
:100CF7004003020E427412B54003020E5A7413B534
:100D070040030210187414B54003020F2A7415B576
:100D17004003020E727416B54003020F127420B519
:100D270040030210217421B5400302106E7422B5EE
:100D37004003020F457423B54003020F687424B5BE
:100D4700400302109C7425B540030210857426B534
:100D57004003020E127427B5400280707444B540F8
:100D6700030210EC0210BE90F91BE4F085404875B1
:100D77004901E4F54A85414B85424C853F8212186B
:100D87004A0210EC754B25754CF285404875495A57
:100D9700E4F54A853F8212184A0210EC754B7F75BD
:100DA7004CF285404875495AE4F54A853F82121846
:100DB7004A0210EC754B1D754CF98540487549047E
:100DC700E4F54A853F8212184A0210EC754B1C75F0
:100DD7004CF9854048754901E4F54A853F82121868
:100DE7004A0210EC852449E525C54925E0C5493364
:100DF700C54925E0C54933F54A754BD9754CF28588
:100E07004048853F8212184A0210EC754B24754CF6
:100E170000854048754902E4F54A853F8212184A21
:100E27000210EC854048754901E4F54A85414B8538
:100E3700424C853F8212184A0210EC85404875499A
:100E470001E4F54A85414B85424C853F8212184A99
:100E57000210EC854048754901E4F54A85414B8508
:100E6700424C853F8212184A0210EC854182854226
:100E770083E0F8A3858241858342884375440075E2
:100E87004500754600854182854283E0FBA3858244
:100E9700418583427D007A008A048D028B05E442F6
:100EA70043ED4244EA4245EC42468541828542830E
:100EB700E0F8A3858241858342790089038802E4AB
:100EC700F94243E94244EA4245EB4246854182857D
:100ED7004283E0FB7C007D007A0090F005EC4543FF
:100EE700F0ED4544A3F0EA4545A3F0EB4546A3F0F2
:100EF7001204A1754B05754CF0854048754904E40B
:100F0700F54A853F8212184A0210EC754B05754C5D
:100F1700F0854048754904E4F54A853F8212184A2E
:100F27000210EC1204A1854048754901E4F54A8591
:100F3700414B85424C853F8212184A0210EC85418D
:100F470082854283E090F91CF0854048754902E4A8
:100F5700F54A85414B85424C853F8212184A02105B
:100F6700EC854182854283E0FAA3858241858342ED
:100F77008A43754400754500754600854182854260
:100F870083E0F8A385824185834279007A008A034A
:100F970089028801E42543F543E93544F544EA35F8
:100FA70045F545EB3546F546854182854283E0FCAC
:100FB700A38582418583427D008D038C02E4FD2554
:100FC70043F543ED3544F544EA3545F545EB3546FC
:100FD700F546854182854283E0FB780079007A00F7
:100FE70090F91DE82543F0E93544A3F0EA3545A318
:100FF700F0EB3546A3F01204A1754B1D754CF9852E
:101007004048754904E4F54A853F8212184A0210A0
:10101700EC902CFB12283A0210EC85418285428322
:10102700E0FAA385824185834290F91BEAF0BE0569
:1010370010BF000D854182854283E0FA8A28752911
:1010470000E4F526F527154174FFB54102154285E1
:101057004048754901E4F54A85414B85424C853F37
:101067008212184A0210EC754B1B754CF9854048E3
:10107700754901E4F54A853F8212184A8067754B26
:1010870021754CF9854048754901E4F54A853F8249
:1010970012184A8050854182854283E090F921F0F9
:1010A700754B21754CF9854048754901E4F54A852A
:1010B7003F8212184A802EAC3F7A00750D088C8249
:1010C7008A83C006C00712175BAD407A00750D080A
:1010D7008D828A8312175BD007D006750D108E821A
:1010E7008F8312175B90FB33E0FA5302FD90FB33BB
:1010F700EAF09000002290F000E4F0A3F0A3F0A340
:10110700F090F0047401F022E509606790F9F37438
:101117000DF0539AFEE50930E45390F922E0FAB452
:101127000100E433FA24A7FBE434F9FC8B828C83B7
:10113700E0703AEA75F041A4FB2423F582E434F920
:10114700F583E0FC8C49754A00EB2423F54BE43426
:10115700F9F54C7548F07582FEC00212184AD002A4
:10116700EA24A7F582E434F9F5837401F0750900E0
:10117700439A01222290FB36E0FABA014490FB1E03
:10118700E0FAA3E0FBA3E090FB39E0FCA3E0FD90CD
:10119700FB21E0FEA3E0FFEE4F60047801800278B8
:1011A70000E8601D8A828B83E0F8A3AA82AB838C58
:1011B700828D83E8F0A3AC82AD831EBEFF011F8042
:1011C700D690FB25E0FA5302FD90FB25EAF022AA10
:1011D70082AB83ACF0122B99FD20E7030212B674A1
:1011E700012AFDE43BFE8C078D828E838FF0122B44
:1011F70099FD24FB50030212B6ED2D2D90120773B3
:1012070002121602122802123F02127A02129F7568
:101217004D02E4F54E90F9F375F000121A7C0212B4
:10122700B690DE00E0FD7E00754F28E4F5508D8214
:101237008E83121ADB0212B674022AFDE43BFE8C7F
:10124700078D828E838FF0122B99FDA3122B99FEA7
:1012570074062AFFE43BF88C018F82888389F01299
:101267002B99F54FA3122B99F5508D828E83121A65
:10127700DB803C74062AFDE43BFE8C078D828E835F
:101287008FF0122B99F54DA3122B99F54E8A828B6D
:10129700838CF0121A7C801790FB1EE0FAA3E0FB08
:1012A700A3E08A828B83754F10E4F550121ADB9006
:1012B70000002290DF2FE4F090DF30F090DF31F074
:1012C70090DF00740CF090DF01744EF090DF027431
:1012D700FFF090DF037440F090DF047401F090DFBB
:1012E70005E4F090DF06F090DF077406F090DF0862
:1012F700E4F090DF097424F090DF0A743AF090DF8D
:101307000B74F1F090DF0C74CAF090DF0D74A3F04A
:1013170090DF0E7403F090DF0F7423F090DF1074EA
:1013270011F090DF117436F090DF127407F090DF40
:1013370013743FF090DF147418F090DF157417F0F2
:1013470090DF16746CF090DF177403F090DF187459
:1013570040F090DF197491F090DF1A7456F090DF27
:101367001B7410F090DF1C74E9F090DF1D742AF0F5
:1013770090DF1EE4F090DF1F741FF090DF23748866
:10138700F090DF247431F090DF257409F090DF2EA0
:101397007450F090DF07740CF090DF097425F0901B
:1013A700DF0A7495F090DF0B7455F090DF1A74B66E
:1013B700F090DF1B7410F090DF1C74EAF090DF1DD3
:1013C700742AF090DF1EE4F090DF1F741FF02243B1
:1013D700FE03C2912253BEFBE5BE30E6FB53C6B8FF
:1013E700E5C620E6FB43BE04E5BE30E6FB2212134A
:1013F700DC0213D61213F5121A6AD29190012C123D
:10140700171CC29190012C12171C1214241210FDE4
:0D141700121A76D2AF1225A412056A80F8D1
:102C34000F020F040F06060F00000073656E64692F
:102C44006E67206D696E730073656E64696E6720CC
:102C54006D617873006D6F6464696E67206D696E71
:102C64007320746F206265207468726573686F6C7A
:102C7400640073656E64696E672074687265736856
:102C84006F6C64003D3D3D7374617274206F662007
:102C94007065616B3D3D3D003D3D73746172742010
:102CA4006F66207065616B003D3D6D6964646C65A1
:102CB400206F66207065616B003D3D656E64206F1A
:102CC40066207065616B003D3D3D656E64206F66F6
:102CD400207065616B3D3D3D0073656E64696E6790
:102CE400206368616E737063300073656E64696E2F
:102CF4006720686F707300464853535F434D445FC9
:102D0400434F4E4649475F484F5053204E4F54203F
:0C2D1400494D504C454D454E544544007F
:1014240090F9EA7403F07AEB7BF98BD57AEB7BF9CC
:101434008AD4757200757382E4F57490F92375F09B
:10144400001229BA1212BAD2A87591FF75E9007573
:101454000900439A0102145C75E10490DF3BE0FA51
:1014640030E0F890F9EA7403F022AA82AB83C00258
:10147400C00312145CD003D002E50A450B700B8A3A
:10148400828B83E0FC8C0A750B008A728B737574F3
:1014940000850A75850B7690F9A975F0001229D993
:1014A40090FB43E4F075E10390DF3BE0FA541360F2
:1014B400F775820022757200757341E4F57490F932
:1014C4002375F0001229BA90F9A5E4F090F9A6F07A
:1014D40090F9A7F090F9A87401F090F922E4F05380
:1014E4009BFC53E9EF75E102439110225391EF12F3
:1014F400145C43D68153D1FE539BFC53E9EF2290F5
:10150400F9EAE0FABA01012290F9EA7401F002144E
:10151400B990F9EAE0FABA01091214F090F9EA7400
:1015240003F022C0E0C0F0C082C083C002C003C088
:1015340004C005C006C007C0D075D00090F9F3748C
:1015440011F090DF3BE0FABA0D5890F922E075F003
:1015540041A42423FAE434F9FB90F922E024A5FC05
:10156400E434F9FD8C828D83E0FE04FF8C828D834C
:10157400F0EE2AF582E43BF583E5D9F090F922E018
:1015840024A5F582E434F9F583E0FABA4100404534
:1015940090F922E0FA24A5F582E434F9F583E4F025
:1015A400803390DF3BE0FABA132B90FB43E024A98D
:1015B400FAE434F9FB8A828B83E0601990FB43E000
:1015C400FA90FB43E02401F0EA24A9F582E434F91B
:1015D400F583E0F5D9C289D0D0D007D006D005D0A4
:1015E40004D003D002D083D082D0F0D0E032C02027
:1015F400C0E0C0F0C082C083C002C003C004C00504
:10160400C006C007C000C001C0D075D00090F9F377
:101614007410F0539BFCE5E94209E5E920E4030278
:1016240016D990F9EAE0FABA020643D6810216D92D
:1016340090F922E0FAB40100E43324A7F582E434FB
:10164400F9F583E0FABA014A90F922E0FAB401000C
:10165400E43375F041A42423FAE434F9FB7C0075E7
:101664007200757341E4F5748A828B838CF01229BD
:10167400BA90F922E06401F090F922E0FA24A5F589
:1016840082E434F9F583E4F090F9A7F090F9A8F036
:101694008043D29190000212171CC29190000A124A
:1016A400171C90F922E075F041A42423FAE434F9DC
:1016B400FB7C00757200757341E4F5748A828B8338
:1016C4008CF01229BA90F922E0FA24A5F582E434C8
:1016D400F9F583E4F0E5E930E616D29190000212C0
:1016E400171CC29190000A12171C1214F01214B99C
:1016F400E5E930E70312145C75E900D0D0D001D0DD
:1017040000D007D006D005D004D003D002D083D0B7
:0817140082D0F0D0E0D02032B9
:012DC9000009
:10171C00AA82AB831ABAFF011BC3E49A74808BF0C4
:10172C0063F08095F0500F7CB07D041CBCFF011D54
:10173C00EC4D70F780DE22AA82AB831ABAFF011B34
:10174C00C3E49A74808BF063F08095F040ED22AA8C
:10175C0082AB83C2AFD2919003E8C002C0031217D0
:10176C001CC2919001F412171CD003D002150DACC1
:10177C000DEC20E754EA30E024900019C002C003BD
:10178C00C00412171CD29190022612171CC2919001
:10179C00001912171CD004D003D002802290011320
:1017AC00C002C003C00412171CD291900032121751
:1017BC001CC29190011312171CD004D003D002EB61
:1017CC00C313CA13CAFB1C80A8C2919003E812175A
:1017DC001CD2AF22AA82AB83ACF0AD72AE73AF74E5
:1017EC00A875A976E84960057578018003757800BD
:1017FC00E5786046C000C0018A828B838CF0122B86
:10180C0099F88D828E838FF0122B99F9E8C399F594
:10181C0077D001D000E5776010E577F5793395E066
:10182C00F57A857982857A83220ABA00010B0DBD7F
:0E183C0000010E18B8FF011980AA90000022CA
:072D200053444343762201F6
:10184A00AA827B0190DE0E7405F0E549454A7001D3
:10185A00227C1E7D0090FB33E0FE30E031EC4D60CF
:10186A002DD291900002C002C003C004C005121715
:10187A001CC29190000A12171CD005D004D003D0C4
:10188A000290F9F47401F01CBCFF011D80C7BB0172
:10189A002F7B0090DE2A7440F0EAF0E548F0AC496C
:1018AA007D0090DE2AECF0E54AF0C374FB9549E42A
:1018BA00954A50067CFB7D00801AAC49AD4A8014DB
:1018CA00C3E495497401954A50067C007D01800461
:1018DA00AC49AD4AE549C39CF549E54A9DF54A43F9
:1018EA00D682AE4BAF4C8F0090FB3BE8F07F009066
:1018FA00FB3CEEF090FB3D74DEF090FB3E742AF068
:10190A0090FB40ECF090FB3FE054E0F090FB42E0AB
:10191A00543F4440F090FB42E054CFF043D6024398
:10192A00D702E5D130E1FB53D1FD90DE11E044014D
:10193A00F090FB33E0FC43040190FB33ECF0021817
:10194A005490F9F5E070051225A480F52253BE7F64
:10195A0043BE8090DE0B74F7F090DE0774FFF090C0
:10196A00DE0974FFF0438C10538CFED2BD439A02F9
:10197A00758900C2C5758B00C2E87A3B7BFB8BD3A5
:10198A007A3B7BFB8AD290FB3FE0541FF090FB41ED
:10199A00E0547FF090FB3FE054E0F090FB41E054CC
:1019AA009F4420F090FB41E054E0F090FB42E04479
:1019BA0008F0E054FBF090FB42E054FC4401F09044
:1019CA00DE01E054FEF090F9F8E4F090F9F6F0A3A5
:1019DA00F090F9F5E4F090DE0EF090DE107404F069
:1019EA0090DE137404F090FB26E4F090FB25F0904F
:1019FA00FB1CF0A3F090FB1E74F9F0A374F9F0A39A
:101A0A00E4F090FB21F0A3F090FB237420F0A3E410
:101A1A00F090DE0E7405F090DE107420F090DE1364
:101A2A007420F090DE15E04480F090DE12E04480ED
:101A3A00F090FB34E4F090FB33F090FB2AF0A3F033
:101A4A0090FB2C7419F0A374FAF0A3E4F090FB2F26
:101A5A00F0A3F090FB31E4F0A37401F0439A022260
:101A6A0090F9F37402F043BE80021957D29022C251
:101A7A009022AA82AB83ACF090FB26E06034D2912C
:101A8A009003E812171CC2919003E812171CD29116
:101A9A009003E812171CC2919003E812171CD29106
:101AAA009003E812171CC2919003E812171C90FFCA
:101ABA00FF2290FB19EAF0A3EBF0A3ECF090FB1CD9
:101ACA00E54DF0A3E54EF090FB267401F09000007E
:101ADA0022AA82AB8390FB26E06034D2919003E87D
:101AEA0012171CC2919003E812171CD2919003E8B6
:101AFA0012171CC2919003E812171CD2919003E8A6
:101B0A0012171CC2919003E812171C90FFFF227C47
:101B1A000090FB19EAF0A3EBF0A3ECF090FB1CE5B4
:101B2A004FF0A3E550F090FB267401F090000022DC
:101B3A007A0290DE0EE4F090FB1CE0FBA3E0FCC30B
:101B4A0074209BE49C50047D2080048B057A0A8DC6
:101B5A00067F00EBC39EFBEC9FFC90FB1CEBF0A303
:101B6A00ECF08D03EB60047C0180027C00EC6036B3
:101B7A0090FB19E0FCA3E0FDA3E0FE8C828D838E2E
:101B8A00F0122B9990DE20F090FB19E0FCA3E0FD07
:101B9A00A3E0FE0CBC00010D90FB19ECF0A3EDF0E4
:101BAA00A3EEF01B80BE90DE11E04AF090FB1CE031
:101BBA00FAA3E0FB4A700590FB26E4F02290FB268C
:101BCA007402F07582002290FB1EE0FAA3E0FB90FB
:101BDA00DE11E0FCB40100E433FC20E0F290DE0EFA
:101BEA00E4F090DE16E0FC7D0090FB21ECF0A3ED22
:101BFA00F090FB25E0FE30E10A90FB267403F0909A
:101C0A00FFFF2290FB25E0FE43060290FB25EEF043
:101C1A0090FB21E0FEA3E0FFC374209EE49F5018CE
:101C2A00D29190012CC002C00312171CC2919001DC
:101C3A002C12171CD003D00290FB21E0FCA3E0FD7C
:101C4A00EC4D60027401FE601690DE20E0FE8A828E
:101C5A008B83F0A3AA82AB831CBCFF011D80E11217
:101C6A00117C90FB21E0FAA3E0FBC3EA9420EB94F9
:101C7A0000501012117B90DE11E0FA4408F090FB3C
:101C8A0026E4F090DE11E04440F090FB21E0FAA354
:101C9A00E08A82F58322754D01E4F54E90F9F875D4
:101CAA00F000021A7CAA82AB83ACF074022AFAE42E
:101CBA003BFB8A828B838CF0122B99FAA3122B9905
:101CCA0090F9F8EAF090F9F57401F0228582737BB5
:101CDA00457C2D7D8074012BFEE43CFF8D008E82B5
:101CEA008F8388F0122B99FEAF72BEFF028052EEEC
:101CFA00B5732BEF70047EFF80F01F8B828C838D6F
:101D0A00F0122B992BFBE43CFC74012BF8E43CF910
:101D1A008D02888289838AF0122B99FE80CC8B826D
:101D2A008C838DF0122B992BFBE43CFC74012BFA6B
:101D3A00E43CF88D018A82888389F0122B99FE800F
:101D4A00A98B828C838DF02285825185835285F0FE
:101D5A005374022551F55BE43552F55C85535D8574
:101D6A005B82855C83855DF0122B99F8A3122B990F
:101D7A00F98959755A007401B55906E4B55A0280B1
:101D8A001A7402B55906E4B55A02802C7403B5597F
:101D9A0007E4B55A03021E40021E5D89827572006D
:101DAA00121CD685825485835585F056122B99FAD2
:101DBA008A57755800021E76898288048C72121C12
:101DCA00D685825485835585F05674022554FCE4E1
:101DDA003555FDAE568C828D838EF0122B99FC8C74
:101DEA0057755800855B82855C83855DF0122B9957
:101DFA00A3122B99FC7D0074012554FEE43555FF8E
:101E0A00AA568E828F838AF0122B99FE7A00ECB53D
:101E1A000606EDB502028054855B82855C83855D8A
:101E2A00F0122B99FAA3122B99FB750D108A828B4B
:101E3A008312175B80E2898288028A72121CD68515
:101E4A00825485835585F056122B99FA8A5775580C
:101E5A0000801989828872121CD68582548583551E
:101E6A0085F056122B99FA8A57755800740625512F
:101E7A00FAE43552FBAC538A828B838CF0122B998D
:101E8A00FAA3122B99FBC3EA9557EB955850048A8B
:101E9A00578B5885574D85584E855482855583856D
:101EAA0056F0121A7C855B82855C83855DF0122B65
:101EBA0099A3122B99FA7B00BA021BBB0018D29184
:101ECA0090000212171CC29190000A12171C90FB74
:101EDA0035E0FA4401F02290DE0EE4F090DE11E0E3
:101EEA00FA30E40D90FB26E4F090DE11E0FB44802A
:101EFA00F0EA30E22490DE11E4F090F9F47404F090
:101F0A0090FB26E4F0D2919000C8C00212171CC2BE
:101F1A00919000C812171CD00290FB26E0FBBB036D
:101F2A0019D2919001F4C00212171CC2919001F4C7
:101F3A0012171CD00290FB26E4F090FB26E0600307
:101F4A00022160EA20E00302216090DE0EE4F07ACA
:101F5A00007B5E7C007D40BA0800501690DE20E0CF
:101F6A00FE8B828C838DF0122A7DA3AB82AC830A0E
:101F7A0080E5E55EFA20E70302206C74605AFB6094
:101F8A0015BB200302214ABB400302204DBB60035C
:101F9A0002205902214A741F5AFB7046AC5FBC00EA
:101FAA0002801CBC06028005BC082B800C90005ED7
:101FBA0075F040121D5202214A121CA002214AE465
:101FCA00F566F567754D02E4F54E90006675F040CA
:101FDA00121A7C02214A90005E75F04012283902DA
:101FEA00214ABB011AAC5FBC000302214ABC0A03A6
:101FFA0002214A90005E75F04012283902214ABB3C
:10200A00022DAC5FBC00028008BC120302214A8088
:10201A0012754D02E4F54E902D2775F080121A7C48
:10202A0002214A90005E75F04012283902214A9036
:10203A00005E75F04012283990DE11E0FC4420F071
:10204A0002214A90005E75F0401211D602214A9090
:10205A00DE11E04420F090005E75F040122839024B
:10206A00214A74605AFC6015BC200302214ABC4014
:10207A0003022117BC600302213902214A741F5A44
:10208A00FB703FAA5FBA010302214ABA0303022185
:10209A004ABA0502800BBA070302214ABA09178015
:1020AA000990DE00E560F002214A90005E75F0407A
:1020BA00121CAF02214A90005E75F04012283902C4
:1020CA00214ABB011CAA5FBA01028074BA030280CA
:1020DA006FBA1102806A90005E75F040122839804A
:1020EA005FBB0217AA5FBA01028055BA0302805089
:1020FA0090005E75F040122839804590DE11E04468
:10210A0020F090005E75F040122839803390FB264B
:10211A007402F090FB36E55FF090FB39E560F0A3BE
:10212A00E561F090FB37E564F0A3E565F080119076
:10213A00005E75F04012283990DE11E0FA4420F072
:10214A0090DE11E0FA4440F0E5644565700890DEDF
:10215A0011E0FA4408F090FB26E0FABA0103121BD8
:10216A003A90FB26E0FABA0213D2919000021217B3
:10217A001CC29190000A12171C021BD12290DE0E7B
:10218A007405F090FB33E0FA30E12490FB347403D9
:10219A00F090DE14E04420F0D29190000212171C55
:1021AA00C29190000A12171C90F9F47405F022905B
:1021BA00FB33E0FA43020290FB33EAF090FB2CE097
:1021CA00FAA3E0FBE5D130E11AD291900014C002E3
:1021DA00C00312171CC29190001412171CD003D00E
:1021EA000280E143D68290FB3B74DEF090FB3C74A4
:1021FA002AF08B0490FB3DECF090FB3EEAF090FB5A
:10220A0042E0543FF090FB42E054CF4410F090DE9D
:10221A0016E090FB40F090DE17E090FB3F541FF56C
:10222A00F0E054E045F0F090FB3FE0541FFB7A00E9
:10223A0090FB40E0FC7D002AFAED3BFBC3E49A7474
:10224A00019B503790F9F47406F090FB347403F054
:10225A0090DE14E04420F0E054FEF0D29190012C7C
:10226A0012171CC2919000C812171CD29190012C0F
:10227A0012171CC2919000C802171C43D60243D7FA
:10228A000290FB2FEAF0A3EBF022E5D130E1FB53F9
:10229A00D1FD90FB2FE0FAA3E0FBC3EA9408EB948C
:1022AA0000500302259090FB2CE0FAA3E0FBA3E088
:1022BA00FC74042AFDE43BFE8C078D828E838FF02A
:1022CA00122B99F56D74052AFEE43BFF8C008E8271
:1022DA008F8388F0122B99F56C74062AFAE43BFB7B
:1022EA008A828B83E0FCA38C6A756B00E0F8A3AA50
:1022FA0082AB8388017800E8256AF56AE9356BF5CF
:10230A006B74FFB56D02800302258B7480B56C0275
:10231A0080337481B56C030223A87482B56C0302FE
:10232A0024907483B56C030224A67484B56C0302EA
:10233A0024267485B56C030224BE748FB56C03021F
:10234A00251C0225698A828B83E0F8A3886A756B4B
:10235A0000E0F8A3AA82AB8388017800E8256AF531
:10236A006AE9356BF56B8A828B83E0F8A388687516
:10237A006900E0F97800E82568F568E93569F569E2
:10238A0085686E85696F856C48856A49856B4A855B
:10239A006E4B856F4C856D8212184A02257C8A82A3
:1023AA008B83E0FDA38D68756900E0FDA3AA82AB6B
:1023BA00838D047D00ED2568F568EC3569F569853E
:1023CA00686E85696F8A048B05856E70856F717575
:1023DA006802E4F569C3E568956AE569956B502476
:1023EA008C828D83E0FEA3AC82AD83857082857179
:1023FA0083EEF0A38582708583710568E4B568D59C
:10240A00056980D1754B2A754C2D856C4875490133
:10241A00E4F54A856D8212184A02257C8A828B83EA
:10242A00E0FCA38C68756900E0FCA3AA82AB838CEC
:10243A00057C00EC2568F568ED3569F56985686EF7
:10244A0085696F8A048B057E027F00C3EE956AEF69
:10245A00956B501A8C828D83E0F8A3AC82AD83858C
:10246A006E82856F83E8F00EBE00E00F80DD754B4B
:10247A002C754C2D856C48754901E4F54A856D82A9
:10248A0012184A02257C856C48856A49856B4A8AF6
:10249A004B8B4C856D8212184A02257C754B2D7523
:1024AA004C2D856C4875490DE4F54A856D821218E4
:1024BA004A02257C8A828B83E0FCA3AA82AB83BC76
:1024CA000102800ABC0202801FBC0331800DC002D7
:1024DA00C003121503D003D0028022C002C0031227
:1024EA001515D003D0028015856A0A856B0B8A827E
:1024FA008B83C002C00312146ED003D002856C48CD
:10250A00856A49856B4A8A4B8B4C856D8212184ABB
:10251A0080608A048B057E0075723B75732D757415
:10252A0080757509E4F5768C828D838EF0C002C0C1
:10253A00031217E0E5828583F0D003D00245F070DC
:10254A003175C980856C48856A49856B4A8A4B8B87
:10255A004C856D82C002C00312184AD003D002858E
:10256A006C48856A49856B4A8A4B8B4C856D821209
:10257A00184A90FB33E0FA5302FD90FB33EAF080ED
:10258A000B120C91800690F9F47407F090DE0E7429
:10259A0005F090DE14E054FEF02290F9F6E0FAA37A
:1025AA00E0FBEA30E01C90F9F57402F090F9F6E0ED
:1025BA00FCA3E0FD5304FE90F9F6ECF0A3EDF04322
:1025CA00BE01EA5406603A90F9F3740AF090F9F5FC
:1025DA007403F090F9F6E0FAA3E0FB5302FD90F9D8
:1025EA00F6EAF0A3EBF090DE01E04404F090000874
:1025FA0012171C90DE01E0FA54FBF090F9F5740111
:10260A00F090DE0EE4F090DE11E0FA30E21B90DE8C
:10261A0011E0FA54DBF090FB1CE4F0A3F090FB21EC
:10262A00E4F0A3F090FB26E4F090DE0E7405F0903F
:10263A00DE11E0FA30E51B90DE11E0FA54CFF0909B
:10264A00FB2AE4F0A3F090FB2FE4F0A3F090FB3414
:10265A00E4F090DE14E0FA30E61B90DE14E0FA545F
:10266A009FF090FB2AE4F0A3F090FB2FE4F0A3F094
:10267A0090FB34E4F090F9F6E0FAA3E0FBEA20E2FA
:10268A000890F9F5E0FABA041C12195790F9F37494
:10269A000BF090F9F6E0FAA3E0FB5302FB90F9F68F
:1026AA00EAF0A3EBF090F9F6E0FAA3E0FBEA30E4F3
:1026BA0019121EE190F9F6E0FAA3E0FB5302E75380
:1026CA00030F90F9F6EAF0A3EBF090F9F6E0FAA31B
:1026DA00E0FB30E65090F9F3740CF090FB34E0FA2A
:1026EA00BA0329D29190000212171CC29190000AD3
:1026FA0012171C90F9F47408F090FB34E4F090DEA1
:10270A000E7405F090DE14E0FA549FF0122187123D
:10271A00229490F9F6E0FAA3E0FB5303BF90F9F68E
:10272A00EAF0A3EBF090F9F6E0FAA3E0FBEA54E052
:10273A007005EB54BD602690F9F47409F0750D101C
:10274A008A828B8312175B90F9F6E0FAA3E0FB53B7
:10275A0002E05303BD90F9F6EAF0A3EBF022C0E0E1
:10276A00C082C083C002C003C004C005C0D075D0F7
:10277A0000E5BE30E6FBC2AF90F9F6E0FAA3E0FB53
:10278A0090DE06E07D004202ED420390F9F6EAF09F
:10279A00A3EBF090DE02E0FCE4C454F0CCC4CC6CB1
:1027AA00CC54F0CC6CFDEC4202ED420390F9F6EA0F
:1027BA00F0A3EBF090DE04E025E0FDE4FC4202ED3C
:1027CA00420390F9F6EAF0A3EBF0EB30E12090FB3C
:1027DA0033E0FA5302FE90FB33EAF090F9F6E0FA9E
:1027EA00A3E0FB5303FD90F9F6EAF0A3EBF0758B37
:1027FA0000C2E8D2AFD0D0D005D004D003D002D0E6
:10280A0083D082D0E032C0E0C082C083E5BE30E629
:10281A00FBC2AFE58930E70690F9F57403F053BEC1
:0F282A00FC758900C2C5D2AFD083D082D0E03216
:102D2700000000300000554E494D504C454D454E72
:102D37005445440052455345545F4E4F57001201C6
:102D4700000202000020510415470100010203019F
:102D57000902200001010080FA0904000002FFFFB8
:102D670001000705850200010107050502000101B1
:102D7700040309042403610074006C0061007300FC
:102D8700200069006E0073007400720075006D000A
:102D970065006E00740073001E034300430031009A
:102DA700310031003100200055005300420020005F
:102DB7006E00690063000A033000300030003900FC
:022DC70000FF0B
:1028390022AA82AB837C007D008A068B078E828F59
:1028490083E493F8A3AE82AF83E860070CBC00ED84
:102859000D80EA8A4B8B4C7548F08C498D4A7582FC
:10286900FE02184A85820F754B0F754C007548F1A9
:10287900754901E4F54A7582FE02184A8582108578
:102889008311754B10754C007548F2754902E4F5D2
:102899004A7582FE02184A85821285831385F014CF
:1028A900F515754B12754C007548F3754904E4F537
:1028B9004A7582FE02184A122963BC0003022B6B77
:1028C900EF60FA30D502B2D1E583B4FF03022B8160
:1028D900E582B4FF03022B81258340072482400B44
:1028E900022B6B2483145003022B81F582EA8DF0AD
:1028F900A4A8F0EA8EF0A428F8E435F0F9EB8DF0FD
:10290900A428E935F0F9E433CA8FF0A429F9EA35A6
:10291900F0FAEBF88EF0A429F9EA35F0FAE433FB82
:10292900EC8DF0A429F9EA35F0FAE43BFBE88FF0E5
:10293900A42AFAEB35F0FBE433CCFD8EF0A42AFA95
:10294900EB35F0FBE43CFCED8FF0A42BFBEC35F010
:10295900FC20E703122991022B4AAA82AB83A2F732
:102969003392D16002D2F7F582ACF0E58124F9F80F
:10297900E6FD08E6FE0886F008E6A2F73392D56080
:0829890002D2F7F583AFF02242
:0600BA00E478FFF6D8FD1A
:102991007804EC700DC9CACBFCE58224F8F582D825
:1029A100F122782020E7111582C3E933F9EA33FADD
:1029B100EB33FBEC33FCD8EC22AC82AD83AE73AFCE
:1029C10074BE0004EF600C1F0FE572122A7DA3DEB6
:1029D100FADFF88C828D8322AA82AB83ACF08A77EE
:1029E1008B788C79A872A973AD74887A897B8D7C78
:1029F100A875A9768805890618B8FF0119ED4E60FA
:102A010025857A82857B83857CF0122B99FDA385B0
:102A1100827A85837B8A828B838CF0ED122A7DA357
:102A2100AA82AB8380CE8577828578838579F022EF
:100098007901E94400601B7A01902DC97843759372
:1000A800FBE493F2A308B800020593D9F4DAF275D9
:0200B80093FFB4
:102A3100FCABF0AA83A982749EC2D1F582122991BE
:102A4100022B4A7F9E122A6B30D103022B6BC3EFFC
:102A51009582500974FFF5F0F583F5822279001211
:102A61002BED89828A838BF0EC22AA82AB83A2F7B9
:102A71003392D16002D2F7F582ACF02220F7103008
:102A8100F6118883A88220F507F6A88375830022B2
:102A9100F280F7F022E5828572F0A4C582C0F0854C
:102AA10073F0A4D0F025F0C5838572F0A42583F5D9
:102AB1008322AAF0FBE5828572F0A4FCADF0E583E8
:102AC1008572F0A42DFDE435F0FEE5828573F0A456
:102AD1002DFDE5F03EFEE433FFEA8572F0A42EFE03
:102AE100E5F03FFFE5838573F0A42EFEE5F03FFF9F
:102AF100E5828574F0A42EFEE5F03FFFEB8572F0D0
:102B0100A42FFFEA8573F0A42FFFE5838574F0A459
:102B11002FFFE5828575F0A42F8EF08D838C8222A4
:1000C0007800E84400600A79007593F0E4F309D8F9
:1000D000FC7843E8440B600C790C90F000E4F0A34A
:0400E000D8FCD9FA75
:102B21007A10E4FBFCE58225E0F582E58333F58349
:102B3100EB33FBEC33FCEB9572F5F0EC957340064F
:102B4100FCABF0438201DADD22B98003EA13B34022
:102B510010EA2401FAE43BFBE43CFC50047C8005D0
:102B610082BC000EBB000BBA0008E4F5F0F583F55A
:102B71008222A2D1E582138CF092F78B838A822282
:102B8100E4F583F58275F080F4A2D11322E4F58394
:082B9100F58275F0C0747F228B
:0D008B0075817C122C30E582600302008636
:102B990020F71430F6148883A88220F507E6A88365
:102BA90075830022E280F7E49322E022C2D5E5830F
:102BB90030E70DD2D5E4C39582F582E49583F58398
:102BC900E57330E70DB2D5E4C39572F572E49573F8
:102BD900F573122B2130D50BE4C39582F582E49568
:102BE90083F583226040F82582500274FFF582E85C
:102BF90024F8501ECCCBCAF9E4CC24F85014CBCA23
:102C0900F9E4CB24F8500BCAF9E4CA24F850037943
:102C1900002224086010F8C3EC13FCEB13FBEA1341
:0B2C2900FAE913F9D8F12275820022AD
:00000001FF
