:040000000200833245
:01000B0032C2
:0100130032BA
:01001B0032B2
:0100230032AA
:01002B0032A2
:01003300329A
:01003B003292
:01004300328A
:01004B003282
:01005300327A
:01005B003272
:01006300326A
:01006B003262
:01007300325A
:03007B0002042B51
:0300DC0002007EA1
:05007E0012031A80FED0
:1000DF0090DF317406F090DF00740BF090DF017445
:1000EF000BF090DF0274FFF090DF037404F090DFE9
:1000FF00047405F090DF05E4F090DF06F090DF0761
:10010F007406F090DF08E4F090DF0C74EEF090DFEF
:10011F000D7455F090DF0E7473F090DF0F7423F0B1
:10012F0090DF107455F090DF117416F090DF127499
:10013F0007F090DF137430F090DF147418F090DF35
:10014F00157417F090DF16746CF090DF177403F0CE
:10015F0090DF187440F090DF197491F090DF1A74EB
:10016F0056F090DF1B7410F090DF1C74EAF090DFF4
:10017F001D742AF090DF1EE4F090DF1F741FF090C3
:10018F00DF237488F090DF247431F090DF25740939
:10019F00F090DF2E74C0F022120602AA82AB83AC5D
:1001AF00F0FDC002C003C004C00590F4FC75F0322E
:1001BF00743B120508AA82AB83ACF0FDE58124FCE9
:1001CF00F5818A828B838CF0ED120615AA82AB83A0
:1001DF00ACF090DF09ECF090DF0AEBF090DF0BEA68
:1001EF00F075E10175E10290000212036AE50A75EC
:1001FF00F006A4FAABF0EA2400FCEB34F0FD90DF3C
:10020F0009E08C828D83F0EA2400FAEB34F0FB7462
:10021F00012AFCE43BFD90DF0AE08C828D83F074B1
:10022F00022AFCE43BFD90DF0BE08C828D83F0749F
:10023F00032AFCE43BFD90DF1CE08C828D83F0747D
:10024F00042AFCE43BFD90DF1DE08C828D83F0746B
:10025F00052AFAE43BFB90DF1EE08A828B83F07560
:10026F00E104227A00EA24CA40438A137514007508
:10027F00150075160090A12075F007E4C002120654
:10028F004EAB82AC83ADF0FED00274802BFB746D4D
:10029F003CFC74C33DFD74353EFE8A0A8B828C8311
:1002AF008DF0EEC0021201A7D0020A80B822E582BB
:1002BF0075F006A4FAABF0EA2400F582EB34F0F502
:1002CF0083E090DF09F0EA2400FAEB34F0FB8A8236
:1002DF008B83A3E090DF0AF08A828B83A3A3E09045
:1002EF00DF0BF08A828B83A3A3A3E090DF1CF08A3D
:1002FF00828B83A3A3A3A3E090DF1DF08A828B835D
:10030F00A3A3A3A3A3E090DF1EF022750B05750C2A
:10031F0014750D23750E321203911203A51200DF0F
:10032F001202727A00BA040050F9EA240BF886829E
:10033F00C0021202BD75E10390000212036AD002DF
:10034F0090DF3BE0FB53031FBB13F59000FFC00290
:10035F0012036AD00275E1040A80CAAA82AB831A1B
:10036F00BAFF011BC3E49A74808BF063F08095F0A1
:10037F00500F7CB07D041CBCFF011DEC4D70F7804D
:10038F00DE2253BE7BE5BE30E6FB53C6B8E5C62082
:10039F00E6FB43BE042243FE0243FE04C291D29207
:1003AF0022B2912275860075C2AA75C5302253F10B
:1003BF00FE75868075C40075C23B75C50075C50B8B
:1003CF0075F30C22AA822085FD8AC1750FFFE4F513
:1003DF00109000010203E6AA82AB83EA4B6027C0AC
:1003EF0002C0031203B0850F8285108312036A12B5
:1003FF0003B0850F8285108312036AD003D0021ACF
:10040F00BAFFD81B80D52243BE8022538ABFC2EBCE
:10041F00758D40439A10438C02D2AF22538ABFC2CC
:10042F00EB53BEFC3285D51185D41290F13E740783
:10043F00F090F13F7407F090F1407407F090F141A4
:10044F007407F090F1427407F090F1437407F09045
:10045F00F1447404F090F145E4F090F146F090F11E
:10046F004774DFF090F14874BEF090F149E4F090DA
:10047F00F14A7407F090F14B7420F090F14C7442F4
:10048F00F053BEFBE5BE30E5FBAAC674F85AF5F093
:10049F00744145F0F5C6E5C630E6FB43BE041204D1
:1004AF001A85D51185D41243D6817A3E7BF18B0202
:1004BF0090F145EAF07A3E7BF190F146EAF07A4509
:1004CF007BF18BD57A457BF18AD475D60143C70270
:1004DF0043BE07000000E5BE540370030204F67527
:1004EF00D701004387010053C7FD8511D58512D46D
:1004FF0075D601E5BE30E5FB221205ABBC00030249
:10050F0006DDEF60FA30D502B2D1E583B4FF030206
:10051F0006F3E582B4FF030206F325834007248226
:10052F00400B0206DD24831450030206F3F582EA22
:10053F008DF0A4A8F0EA8EF0A428F8E435F0F9EBDA
:10054F008DF0A428E935F0F9E433CA8FF0A429F926
:10055F00EA35F0FAEBF88EF0A429F9EA35F0FAE46F
:10056F0033FBEC8DF0A429F9EA35F0FAE43BFBE814
:10057F008FF0A42AFAEB35F0FBE433CCFD8EF0A418
:10058F002AFAEB35F0FBE43CFCED8FF0A42BFBECEF
:10059F0035F0FC20E7031205D90206BCAA82AB8313
:1005AF00A2F73392D16002D2F7F582ACF0E5812445
:1005BF00F9F8E6FD08E6FE0886F008E6A2F73392A2
:0A05CF00D56002D2F7F583AFF022E9
:0600B200E478FFF6D8FD22
:1005D9007804EC700DC9CACBFCE58224F8F582D801
:1005E900F122782020E7111582C3E933F9EA33FAB9
:0905F900EB33FBEC33FCD8EC22DF
:100090007900E94400601B7A00900752784D75930F
:1000A000F1E493F2A308B800020593D9F4DAF275EB
:0200B00093FFBC
:10060200FCABF0AA83A982749EC2D1F5821205D9ED
:100612000206BC7F9E12063C30D1030206DDC3EF08
:100622009582500974FFF5F0F583F5822279001264
:10063200070B89828A838BF0EC22AA82AB83A2F712
:100642003392D16002D2F7F582ACF022AAF0FBE538
:10065200828513F0A4FCADF0E5838513F0A42DFD93
:10066200E435F0FEE5828514F0A42DFDE5F03EFEB2
:10067200E433FFEA8513F0A42EFEE5F03FFFE583A5
:100682008514F0A42EFEE5F03FFFE5828515F0A467
:100692002EFEE5F03FFFEB8513F0A42FFFEA851451
:1006A200F0A42FFFE5838515F0A42FFFE5828516C0
:0A06B200F0A42F8EF08D838C8222BD
:1000B8007800E84400600A79007593F0E4F309D801
:1000C800FC784DE84401600C790290F000E4F0A35C
:0400D800D8FCD9FA7D
:1006BC00B98003EA13B34010EA2401FAE43BFBE4EB
:1006CC003CFC50047C800582BC000EBB000BBA00C5
:1006DC0008E4F5F0F583F58222A2D1E582138CF0C3
:1006EC0092F78B838A8222E4F583F58275F080F48D
:0F06FC00A2D11322E4F583F58275F0C0747F223A
:0D00830075811612074EE582600302007EB3
:10070B006040F82582500274FFF582E824F8501EF1
:10071B00CCCBCAF9E4CC24F85014CBCAF9E4CB24E3
:10072B00F8500BCAF9E4CA24F850037900222408C4
:10073B006010F8C3EC13FCEB13FBEA13FAE913F9A3
:07074B00D8F12275820022A3
:00000001FF
